{
  "contractName": "Voting",
  "abi": [
    {
      "inputs": [],
      "name": "candidateCount",
      "outputs": [
        {
          "internalType": "uint256",
          "name": "",
          "type": "uint256"
        }
      ],
      "stateMutability": "view",
      "type": "function"
    },
    {
      "inputs": [
        {
          "internalType": "uint256",
          "name": "",
          "type": "uint256"
        }
      ],
      "name": "candidates",
      "outputs": [
        {
          "internalType": "uint256",
          "name": "id",
          "type": "uint256"
        },
        {
          "internalType": "string",
          "name": "name",
          "type": "string"
        },
        {
          "internalType": "uint256",
          "name": "voteCount",
          "type": "uint256"
        },
        {
          "internalType": "bool",
          "name": "hasVoted",
          "type": "bool"
        }
      ],
      "stateMutability": "view",
      "type": "function"
    },
    {
      "inputs": [
        {
          "internalType": "string",
          "name": "_name",
          "type": "string"
        }
      ],
      "name": "addCandidate",
      "outputs": [],
      "stateMutability": "nonpayable",
      "type": "function"
    },
    {
      "inputs": [
        {
          "internalType": "uint256",
          "name": "candidateIndex",
          "type": "uint256"
        },
        {
          "internalType": "uint256",
          "name": "voterIndex",
          "type": "uint256"
        }
      ],
      "name": "voteCandidate",
      "outputs": [],
      "stateMutability": "nonpayable",
      "type": "function"
    },
    {
      "inputs": [],
      "name": "getWinner",
      "outputs": [
        {
          "internalType": "string",
          "name": "",
          "type": "string"
        }
      ],
      "stateMutability": "view",
      "type": "function"
    }
  ],
  "bytecode": "0x608060405234801561001057600080fd5b506109ec806100206000396000f3fe608060405234801561001057600080fd5b50600436106100575760003560e01c80633477ee2e1461005c578063462e91ec1461008f5780638e7ea5b2146100ab578063a9a981a3146100c9578063eb1e6270146100e7575b600080fd5b6100766004803603810190610071919061053c565b610103565b604051610086949392919061062c565b60405180910390f35b6100a960048036038101906100a491906107ad565b6101c8565b005b6100b3610272565b6040516100c091906107f6565b60405180910390f35b6100d16103bd565b6040516100de9190610818565b60405180910390f35b61010160048036038101906100fc9190610833565b6103c3565b005b600060205280600052604060002060009150905080600001549080600101805461012c906108a2565b80601f0160208091040260200160405190810160405280929190818152602001828054610158906108a2565b80156101a55780601f1061017a576101008083540402835291602001916101a5565b820191906000526020600020905b81548152906001019060200180831161018857829003601f168201915b5050505050908060020154908060030160009054906101000a900460ff16905084565b600160008154809291906101db90610902565b9190505550604051806080016040528060015481526020018281526020016000815260200160001515815250600080600154815260200190815260200160002060008201518160000155602082015181600101908051906020019061024192919061044f565b506040820151816002015560608201518160030160006101000a81548160ff02191690831515021790555090505050565b60606000600154116102b9576040517f08c379a00000000000000000000000000000000000000000000000000000000081526004016102b090610996565b60405180910390fd5b60008080600190505b60015481116103175782600080838152602001908152602001600020600201541115610304576000808281526020019081526020016000206002015492508091505b808061030f90610902565b9150506102c2565b506000808281526020019081526020016000206001018054610338906108a2565b80601f0160208091040260200160405190810160405280929190818152602001828054610364906108a2565b80156103b15780601f10610386576101008083540402835291602001916103b1565b820191906000526020600020905b81548152906001019060200180831161039457829003601f168201915b50505050509250505090565b60015481565b6001151560008083815260200190815260200160002060030160009054906101000a900460ff1615151461044b57600080838152602001908152602001600020600201600081548092919061041790610902565b9190505550600160008083815260200190815260200160002060030160006101000a81548160ff0219169083151502179055505b5050565b82805461045b906108a2565b90600052602060002090601f01602090048101928261047d57600085556104c4565b82601f1061049657805160ff19168380011785556104c4565b828001600101855582156104c4579182015b828111156104c35782518255916020019190600101906104a8565b5b5090506104d191906104d5565b5090565b5b808211156104ee5760008160009055506001016104d6565b5090565b6000604051905090565b600080fd5b600080fd5b6000819050919050565b61051981610506565b811461052457600080fd5b50565b60008135905061053681610510565b92915050565b600060208284031215610552576105516104fc565b5b600061056084828501610527565b91505092915050565b61057281610506565b82525050565b600081519050919050565b600082825260208201905092915050565b60005b838110156105b2578082015181840152602081019050610597565b838111156105c1576000848401525b50505050565b6000601f19601f8301169050919050565b60006105e382610578565b6105ed8185610583565b93506105fd818560208601610594565b610606816105c7565b840191505092915050565b60008115159050919050565b61062681610611565b82525050565b60006080820190506106416000830187610569565b818103602083015261065381866105d8565b90506106626040830185610569565b61066f606083018461061d565b95945050505050565b600080fd5b600080fd5b7f4e487b7100000000000000000000000000000000000000000000000000000000600052604160045260246000fd5b6106ba826105c7565b810181811067ffffffffffffffff821117156106d9576106d8610682565b5b80604052505050565b60006106ec6104f2565b90506106f882826106b1565b919050565b600067ffffffffffffffff82111561071857610717610682565b5b610721826105c7565b9050602081019050919050565b82818337600083830152505050565b600061075061074b846106fd565b6106e2565b90508281526020810184848401111561076c5761076b61067d565b5b61077784828561072e565b509392505050565b600082601f83011261079457610793610678565b5b81356107a484826020860161073d565b91505092915050565b6000602082840312156107c3576107c26104fc565b5b600082013567ffffffffffffffff8111156107e1576107e0610501565b5b6107ed8482850161077f565b91505092915050565b6000602082019050818103600083015261081081846105d8565b905092915050565b600060208201905061082d6000830184610569565b92915050565b6000806040838503121561084a576108496104fc565b5b600061085885828601610527565b925050602061086985828601610527565b9150509250929050565b7f4e487b7100000000000000000000000000000000000000000000000000000000600052602260045260246000fd5b600060028204905060018216806108ba57607f821691505b6020821081036108cd576108cc610873565b5b50919050565b7f4e487b7100000000000000000000000000000000000000000000000000000000600052601160045260246000fd5b600061090d82610506565b91507fffffffffffffffffffffffffffffffffffffffffffffffffffffffffffffffff820361093f5761093e6108d3565b5b600182019050919050565b7f4e6f2063616e6469646174657320726567697374657265640000000000000000600082015250565b6000610980601883610583565b915061098b8261094a565b602082019050919050565b600060208201905081810360008301526109af81610973565b905091905056fea2646970667358221220cfe702daabf4a06aa07ea6d5d50e5bfcffdfcd8ca76506fe567dd889f1fde4dc64736f6c634300080d0033",
  "immutableReferences": {},
  "source": "pragma solidity >=0.4.22 <0.9.0;\n\ncontract Voting {\n    struct Candidate {\n        uint256 id;\n        string name;\n        uint256 voteCount;\n        bool hasVoted;\n    }\n\n    mapping (uint256 => Candidate) public candidates;\n\n    //public variable\n    uint256 public candidateCount;\n\n    function addCandidate(string memory _name) public {\n        candidateCount++;\n        candidates[candidateCount] = Candidate(candidateCount, _name, 0, false);\n    }\n\n    function voteCandidate(uint256 candidateIndex, uint256 voterIndex) public\n    {\n        if(candidates[voterIndex].hasVoted != true)\n        {\n            candidates[candidateIndex].voteCount++;\n            candidates[voterIndex].hasVoted = true;\n        }\n    }\n\n    function getWinner() public view returns (string memory) { //string is an array of character (including 'bytes') need to specify location where the data is stored.\n        //require in solidity used for validation purposes. syntax(condition, output)\n        require(candidateCount > 0, \"No candidates registered\");\n\n        uint256 maxVotes = 0;\n        uint256 winnerId;\n\n        // Iterate through all candidates to find the one with the most votes\n        for (uint256 i = 1; i <= candidateCount; i++) {\n            if (candidates[i].voteCount > maxVotes) {\n                maxVotes = candidates[i].voteCount;\n                winnerId = i;\n            }\n        }\n\n        // Return the name of the winner\n        return candidates[winnerId].name;\n    }\n}",
  "sourcePath": "/home/milcennii/meta-coin/contracts/Voting.sol",
  "compiler": {
    "name": "solc",
    "version": "0.8.13+commit.abaa5c0e.Emscripten.clang"
  },
  "schemaVersion": "3.4.16",
  "updatedAt": "2024-05-14T07:37:12.646Z",
  "devdoc": {
    "kind": "dev",
    "methods": {},
    "version": 1
  },
  "userdoc": {
    "kind": "user",
    "methods": {},
    "version": 1
  }
}